{
  "_format": "hh-sol-artifact-1",
  "contractName": "RENOVI",
  "sourceName": "contracts/RENOVI.sol",
  "abi": [
    {
      "inputs": [],
      "stateMutability": "nonpayable",
      "type": "constructor"
    },
    {
      "anonymous": false,
      "inputs": [
        {
          "indexed": true,
          "internalType": "address",
          "name": "owner",
          "type": "address"
        },
        {
          "indexed": true,
          "internalType": "address",
          "name": "approved",
          "type": "address"
        },
        {
          "indexed": true,
          "internalType": "uint256",
          "name": "tokenId",
          "type": "uint256"
        }
      ],
      "name": "Approval",
      "type": "event"
    },
    {
      "anonymous": false,
      "inputs": [
        {
          "indexed": true,
          "internalType": "address",
          "name": "owner",
          "type": "address"
        },
        {
          "indexed": true,
          "internalType": "address",
          "name": "operator",
          "type": "address"
        },
        {
          "indexed": false,
          "internalType": "bool",
          "name": "approved",
          "type": "bool"
        }
      ],
      "name": "ApprovalForAll",
      "type": "event"
    },
    {
      "anonymous": false,
      "inputs": [
        {
          "indexed": false,
          "internalType": "address",
          "name": "to",
          "type": "address"
        },
        {
          "indexed": false,
          "internalType": "uint256",
          "name": "id",
          "type": "uint256"
        },
        {
          "indexed": false,
          "internalType": "bytes",
          "name": "blueprint",
          "type": "bytes"
        }
      ],
      "name": "AssetMinted",
      "type": "event"
    },
    {
      "anonymous": false,
      "inputs": [
        {
          "indexed": true,
          "internalType": "address",
          "name": "previousOwner",
          "type": "address"
        },
        {
          "indexed": true,
          "internalType": "address",
          "name": "newOwner",
          "type": "address"
        }
      ],
      "name": "OwnershipTransferred",
      "type": "event"
    },
    {
      "anonymous": false,
      "inputs": [
        {
          "indexed": true,
          "internalType": "address",
          "name": "from",
          "type": "address"
        },
        {
          "indexed": true,
          "internalType": "address",
          "name": "to",
          "type": "address"
        },
        {
          "indexed": true,
          "internalType": "uint256",
          "name": "tokenId",
          "type": "uint256"
        }
      ],
      "name": "Transfer",
      "type": "event"
    },
    {
      "inputs": [],
      "name": "MAX_AMOUNT",
      "outputs": [
        {
          "internalType": "uint256",
          "name": "",
          "type": "uint256"
        }
      ],
      "stateMutability": "view",
      "type": "function"
    },
    {
      "inputs": [
        {
          "internalType": "address",
          "name": "to",
          "type": "address"
        },
        {
          "internalType": "uint256",
          "name": "tokenId",
          "type": "uint256"
        }
      ],
      "name": "approve",
      "outputs": [],
      "stateMutability": "nonpayable",
      "type": "function"
    },
    {
      "inputs": [
        {
          "internalType": "address",
          "name": "owner",
          "type": "address"
        }
      ],
      "name": "balanceOf",
      "outputs": [
        {
          "internalType": "uint256",
          "name": "",
          "type": "uint256"
        }
      ],
      "stateMutability": "view",
      "type": "function"
    },
    {
      "inputs": [
        {
          "internalType": "uint256",
          "name": "",
          "type": "uint256"
        }
      ],
      "name": "blueprints",
      "outputs": [
        {
          "internalType": "bytes",
          "name": "",
          "type": "bytes"
        }
      ],
      "stateMutability": "view",
      "type": "function"
    },
    {
      "inputs": [
        {
          "internalType": "uint256",
          "name": "tokenId",
          "type": "uint256"
        }
      ],
      "name": "buy",
      "outputs": [],
      "stateMutability": "payable",
      "type": "function"
    },
    {
      "inputs": [],
      "name": "contractOwner",
      "outputs": [
        {
          "internalType": "address",
          "name": "",
          "type": "address"
        }
      ],
      "stateMutability": "view",
      "type": "function"
    },
    {
      "inputs": [
        {
          "internalType": "address",
          "name": "addr",
          "type": "address"
        }
      ],
      "name": "getAllOfOwner",
      "outputs": [
        {
          "components": [
            {
              "internalType": "uint256",
              "name": "tokenId",
              "type": "uint256"
            },
            {
              "internalType": "address",
              "name": "creator",
              "type": "address"
            },
            {
              "components": [
                {
                  "internalType": "string",
                  "name": "avatar",
                  "type": "string"
                },
                {
                  "internalType": "string",
                  "name": "username",
                  "type": "string"
                },
                {
                  "internalType": "string",
                  "name": "email",
                  "type": "string"
                },
                {
                  "internalType": "string",
                  "name": "description",
                  "type": "string"
                }
              ],
              "internalType": "struct RENOVI.UserInfo",
              "name": "creatorInfo",
              "type": "tuple"
            },
            {
              "internalType": "address",
              "name": "owner",
              "type": "address"
            },
            {
              "components": [
                {
                  "internalType": "string",
                  "name": "avatar",
                  "type": "string"
                },
                {
                  "internalType": "string",
                  "name": "username",
                  "type": "string"
                },
                {
                  "internalType": "string",
                  "name": "email",
                  "type": "string"
                },
                {
                  "internalType": "string",
                  "name": "description",
                  "type": "string"
                }
              ],
              "internalType": "struct RENOVI.UserInfo",
              "name": "ownerInfo",
              "type": "tuple"
            },
            {
              "internalType": "enum RENOVI.SaleStatus",
              "name": "status",
              "type": "uint8"
            },
            {
              "internalType": "uint256",
              "name": "price",
              "type": "uint256"
            }
          ],
          "internalType": "struct RENOVI.TokenInfoDetailed[]",
          "name": "",
          "type": "tuple[]"
        }
      ],
      "stateMutability": "view",
      "type": "function"
    },
    {
      "inputs": [],
      "name": "getAllOnSale",
      "outputs": [
        {
          "components": [
            {
              "internalType": "uint256",
              "name": "tokenId",
              "type": "uint256"
            },
            {
              "internalType": "address",
              "name": "creator",
              "type": "address"
            },
            {
              "components": [
                {
                  "internalType": "string",
                  "name": "avatar",
                  "type": "string"
                },
                {
                  "internalType": "string",
                  "name": "username",
                  "type": "string"
                },
                {
                  "internalType": "string",
                  "name": "email",
                  "type": "string"
                },
                {
                  "internalType": "string",
                  "name": "description",
                  "type": "string"
                }
              ],
              "internalType": "struct RENOVI.UserInfo",
              "name": "creatorInfo",
              "type": "tuple"
            },
            {
              "internalType": "address",
              "name": "owner",
              "type": "address"
            },
            {
              "components": [
                {
                  "internalType": "string",
                  "name": "avatar",
                  "type": "string"
                },
                {
                  "internalType": "string",
                  "name": "username",
                  "type": "string"
                },
                {
                  "internalType": "string",
                  "name": "email",
                  "type": "string"
                },
                {
                  "internalType": "string",
                  "name": "description",
                  "type": "string"
                }
              ],
              "internalType": "struct RENOVI.UserInfo",
              "name": "ownerInfo",
              "type": "tuple"
            },
            {
              "internalType": "enum RENOVI.SaleStatus",
              "name": "status",
              "type": "uint8"
            },
            {
              "internalType": "uint256",
              "name": "price",
              "type": "uint256"
            }
          ],
          "internalType": "struct RENOVI.TokenInfoDetailed[]",
          "name": "",
          "type": "tuple[]"
        }
      ],
      "stateMutability": "view",
      "type": "function"
    },
    {
      "inputs": [
        {
          "internalType": "uint256",
          "name": "tokenId",
          "type": "uint256"
        }
      ],
      "name": "getApproved",
      "outputs": [
        {
          "internalType": "address",
          "name": "",
          "type": "address"
        }
      ],
      "stateMutability": "view",
      "type": "function"
    },
    {
      "inputs": [
        {
          "internalType": "uint256",
          "name": "tokenId",
          "type": "uint256"
        }
      ],
      "name": "getToken",
      "outputs": [
        {
          "components": [
            {
              "internalType": "uint256",
              "name": "tokenId",
              "type": "uint256"
            },
            {
              "internalType": "address",
              "name": "creator",
              "type": "address"
            },
            {
              "components": [
                {
                  "internalType": "string",
                  "name": "avatar",
                  "type": "string"
                },
                {
                  "internalType": "string",
                  "name": "username",
                  "type": "string"
                },
                {
                  "internalType": "string",
                  "name": "email",
                  "type": "string"
                },
                {
                  "internalType": "string",
                  "name": "description",
                  "type": "string"
                }
              ],
              "internalType": "struct RENOVI.UserInfo",
              "name": "creatorInfo",
              "type": "tuple"
            },
            {
              "internalType": "address",
              "name": "owner",
              "type": "address"
            },
            {
              "components": [
                {
                  "internalType": "string",
                  "name": "avatar",
                  "type": "string"
                },
                {
                  "internalType": "string",
                  "name": "username",
                  "type": "string"
                },
                {
                  "internalType": "string",
                  "name": "email",
                  "type": "string"
                },
                {
                  "internalType": "string",
                  "name": "description",
                  "type": "string"
                }
              ],
              "internalType": "struct RENOVI.UserInfo",
              "name": "ownerInfo",
              "type": "tuple"
            },
            {
              "internalType": "enum RENOVI.SaleStatus",
              "name": "status",
              "type": "uint8"
            },
            {
              "internalType": "uint256",
              "name": "price",
              "type": "uint256"
            }
          ],
          "internalType": "struct RENOVI.TokenInfoDetailed",
          "name": "",
          "type": "tuple"
        }
      ],
      "stateMutability": "view",
      "type": "function"
    },
    {
      "inputs": [],
      "name": "getTransactions",
      "outputs": [
        {
          "components": [
            {
              "internalType": "address",
              "name": "seller",
              "type": "address"
            },
            {
              "internalType": "address",
              "name": "buyer",
              "type": "address"
            },
            {
              "internalType": "uint256",
              "name": "value",
              "type": "uint256"
            },
            {
              "internalType": "uint256",
              "name": "time",
              "type": "uint256"
            },
            {
              "internalType": "uint256",
              "name": "tokenId",
              "type": "uint256"
            }
          ],
          "internalType": "struct RENOVI.TxMeta[]",
          "name": "",
          "type": "tuple[]"
        }
      ],
      "stateMutability": "view",
      "type": "function"
    },
    {
      "inputs": [
        {
          "internalType": "address",
          "name": "addr",
          "type": "address"
        }
      ],
      "name": "getUser",
      "outputs": [
        {
          "components": [
            {
              "internalType": "string",
              "name": "avatar",
              "type": "string"
            },
            {
              "internalType": "string",
              "name": "username",
              "type": "string"
            },
            {
              "internalType": "string",
              "name": "email",
              "type": "string"
            },
            {
              "internalType": "string",
              "name": "description",
              "type": "string"
            }
          ],
          "internalType": "struct RENOVI.UserInfo",
          "name": "",
          "type": "tuple"
        }
      ],
      "stateMutability": "view",
      "type": "function"
    },
    {
      "inputs": [],
      "name": "imx",
      "outputs": [
        {
          "internalType": "address",
          "name": "",
          "type": "address"
        }
      ],
      "stateMutability": "view",
      "type": "function"
    },
    {
      "inputs": [
        {
          "internalType": "address",
          "name": "owner",
          "type": "address"
        },
        {
          "internalType": "address",
          "name": "operator",
          "type": "address"
        }
      ],
      "name": "isApprovedForAll",
      "outputs": [
        {
          "internalType": "bool",
          "name": "",
          "type": "bool"
        }
      ],
      "stateMutability": "view",
      "type": "function"
    },
    {
      "inputs": [
        {
          "internalType": "uint256",
          "name": "price",
          "type": "uint256"
        },
        {
          "internalType": "enum RENOVI.SaleStatus",
          "name": "status",
          "type": "uint8"
        },
        {
          "internalType": "string",
          "name": "_baseTokenURI",
          "type": "string"
        }
      ],
      "name": "mint",
      "outputs": [
        {
          "internalType": "uint256",
          "name": "",
          "type": "uint256"
        }
      ],
      "stateMutability": "nonpayable",
      "type": "function"
    },
    {
      "inputs": [
        {
          "internalType": "address",
          "name": "user",
          "type": "address"
        },
        {
          "internalType": "uint256",
          "name": "quantity",
          "type": "uint256"
        },
        {
          "internalType": "bytes",
          "name": "mintingBlob",
          "type": "bytes"
        }
      ],
      "name": "mintFor",
      "outputs": [],
      "stateMutability": "nonpayable",
      "type": "function"
    },
    {
      "inputs": [],
      "name": "name",
      "outputs": [
        {
          "internalType": "string",
          "name": "",
          "type": "string"
        }
      ],
      "stateMutability": "view",
      "type": "function"
    },
    {
      "inputs": [],
      "name": "owner",
      "outputs": [
        {
          "internalType": "address",
          "name": "",
          "type": "address"
        }
      ],
      "stateMutability": "view",
      "type": "function"
    },
    {
      "inputs": [],
      "name": "ownerCut",
      "outputs": [
        {
          "internalType": "uint256",
          "name": "",
          "type": "uint256"
        }
      ],
      "stateMutability": "view",
      "type": "function"
    },
    {
      "inputs": [
        {
          "internalType": "uint256",
          "name": "tokenId",
          "type": "uint256"
        }
      ],
      "name": "ownerOf",
      "outputs": [
        {
          "internalType": "address",
          "name": "",
          "type": "address"
        }
      ],
      "stateMutability": "view",
      "type": "function"
    },
    {
      "inputs": [],
      "name": "renounceOwnership",
      "outputs": [],
      "stateMutability": "nonpayable",
      "type": "function"
    },
    {
      "inputs": [
        {
          "internalType": "address",
          "name": "to",
          "type": "address"
        },
        {
          "internalType": "uint256",
          "name": "tokenId",
          "type": "uint256"
        }
      ],
      "name": "safeMint",
      "outputs": [],
      "stateMutability": "nonpayable",
      "type": "function"
    },
    {
      "inputs": [
        {
          "internalType": "address",
          "name": "from",
          "type": "address"
        },
        {
          "internalType": "address",
          "name": "to",
          "type": "address"
        },
        {
          "internalType": "uint256",
          "name": "tokenId",
          "type": "uint256"
        }
      ],
      "name": "safeTransferFrom",
      "outputs": [],
      "stateMutability": "nonpayable",
      "type": "function"
    },
    {
      "inputs": [
        {
          "internalType": "address",
          "name": "from",
          "type": "address"
        },
        {
          "internalType": "address",
          "name": "to",
          "type": "address"
        },
        {
          "internalType": "uint256",
          "name": "tokenId",
          "type": "uint256"
        },
        {
          "internalType": "bytes",
          "name": "_data",
          "type": "bytes"
        }
      ],
      "name": "safeTransferFrom",
      "outputs": [],
      "stateMutability": "nonpayable",
      "type": "function"
    },
    {
      "inputs": [
        {
          "internalType": "address",
          "name": "operator",
          "type": "address"
        },
        {
          "internalType": "bool",
          "name": "approved",
          "type": "bool"
        }
      ],
      "name": "setApprovalForAll",
      "outputs": [],
      "stateMutability": "nonpayable",
      "type": "function"
    },
    {
      "inputs": [
        {
          "internalType": "address",
          "name": "_owner",
          "type": "address"
        }
      ],
      "name": "setContractOwner",
      "outputs": [],
      "stateMutability": "nonpayable",
      "type": "function"
    },
    {
      "inputs": [
        {
          "internalType": "uint256",
          "name": "_ownerCut",
          "type": "uint256"
        }
      ],
      "name": "setOwnerCut",
      "outputs": [],
      "stateMutability": "nonpayable",
      "type": "function"
    },
    {
      "inputs": [
        {
          "internalType": "string",
          "name": "_avatar",
          "type": "string"
        },
        {
          "internalType": "string",
          "name": "_username",
          "type": "string"
        },
        {
          "internalType": "string",
          "name": "_email",
          "type": "string"
        },
        {
          "internalType": "string",
          "name": "_description",
          "type": "string"
        }
      ],
      "name": "setUser",
      "outputs": [
        {
          "components": [
            {
              "internalType": "string",
              "name": "avatar",
              "type": "string"
            },
            {
              "internalType": "string",
              "name": "username",
              "type": "string"
            },
            {
              "internalType": "string",
              "name": "email",
              "type": "string"
            },
            {
              "internalType": "string",
              "name": "description",
              "type": "string"
            }
          ],
          "internalType": "struct RENOVI.UserInfo",
          "name": "",
          "type": "tuple"
        }
      ],
      "stateMutability": "nonpayable",
      "type": "function"
    },
    {
      "inputs": [
        {
          "internalType": "bytes4",
          "name": "interfaceId",
          "type": "bytes4"
        }
      ],
      "name": "supportsInterface",
      "outputs": [
        {
          "internalType": "bool",
          "name": "",
          "type": "bool"
        }
      ],
      "stateMutability": "view",
      "type": "function"
    },
    {
      "inputs": [],
      "name": "symbol",
      "outputs": [
        {
          "internalType": "string",
          "name": "",
          "type": "string"
        }
      ],
      "stateMutability": "view",
      "type": "function"
    },
    {
      "inputs": [
        {
          "internalType": "uint256",
          "name": "index",
          "type": "uint256"
        }
      ],
      "name": "tokenByIndex",
      "outputs": [
        {
          "internalType": "uint256",
          "name": "",
          "type": "uint256"
        }
      ],
      "stateMutability": "view",
      "type": "function"
    },
    {
      "inputs": [
        {
          "internalType": "address",
          "name": "owner",
          "type": "address"
        },
        {
          "internalType": "uint256",
          "name": "index",
          "type": "uint256"
        }
      ],
      "name": "tokenOfOwnerByIndex",
      "outputs": [
        {
          "internalType": "uint256",
          "name": "",
          "type": "uint256"
        }
      ],
      "stateMutability": "view",
      "type": "function"
    },
    {
      "inputs": [
        {
          "internalType": "uint256",
          "name": "tokenId",
          "type": "uint256"
        }
      ],
      "name": "tokenURI",
      "outputs": [
        {
          "internalType": "string",
          "name": "",
          "type": "string"
        }
      ],
      "stateMutability": "view",
      "type": "function"
    },
    {
      "inputs": [],
      "name": "totalSupply",
      "outputs": [
        {
          "internalType": "uint256",
          "name": "",
          "type": "uint256"
        }
      ],
      "stateMutability": "view",
      "type": "function"
    },
    {
      "inputs": [
        {
          "internalType": "uint256",
          "name": "",
          "type": "uint256"
        }
      ],
      "name": "transactions",
      "outputs": [
        {
          "internalType": "address",
          "name": "seller",
          "type": "address"
        },
        {
          "internalType": "address",
          "name": "buyer",
          "type": "address"
        },
        {
          "internalType": "uint256",
          "name": "value",
          "type": "uint256"
        },
        {
          "internalType": "uint256",
          "name": "time",
          "type": "uint256"
        },
        {
          "internalType": "uint256",
          "name": "tokenId",
          "type": "uint256"
        }
      ],
      "stateMutability": "view",
      "type": "function"
    },
    {
      "inputs": [
        {
          "internalType": "address",
          "name": "from",
          "type": "address"
        },
        {
          "internalType": "address",
          "name": "to",
          "type": "address"
        },
        {
          "internalType": "uint256",
          "name": "tokenId",
          "type": "uint256"
        }
      ],
      "name": "transferFrom",
      "outputs": [],
      "stateMutability": "nonpayable",
      "type": "function"
    },
    {
      "inputs": [
        {
          "internalType": "address",
          "name": "newOwner",
          "type": "address"
        }
      ],
      "name": "transferOwnership",
      "outputs": [],
      "stateMutability": "nonpayable",
      "type": "function"
    },
    {
      "inputs": [
        {
          "internalType": "uint256",
          "name": "tokenId",
          "type": "uint256"
        },
        {
          "internalType": "enum RENOVI.SaleStatus",
          "name": "status",
          "type": "uint8"
        },
        {
          "internalType": "uint256",
          "name": "price",
          "type": "uint256"
        }
      ],
      "name": "updateStatusAndPrice",
      "outputs": [],
      "stateMutability": "nonpayable",
      "type": "function"
    },
    {
      "inputs": [
        {
          "internalType": "address",
          "name": "",
          "type": "address"
        }
      ],
      "name": "users",
      "outputs": [
        {
          "internalType": "string",
          "name": "avatar",
          "type": "string"
        },
        {
          "internalType": "string",
          "name": "username",
          "type": "string"
        },
        {
          "internalType": "string",
          "name": "email",
          "type": "string"
        },
        {
          "internalType": "string",
          "name": "description",
          "type": "string"
        }
      ],
      "stateMutability": "view",
      "type": "function"
    }
  ],
  "bytecode": "0x60e0604052602860808181529062004aac60a03980516200002991600e9160209091019062000293565b506127106010553480156200003d57600080fd5b50604080518082018252600681526552454e4f564960d01b602080830191825283518085019094526004845263524e564960e01b9084015281513393734527be8f31e2ebfbef4fcaddb5a17447b27d2aef93929091620000a09160009162000293565b508051620000b690600190602084019062000293565b505050620000d3620000cd6200016c60201b60201c565b62000170565b600c80546001600160a01b0319166001600160a01b03838116919091179091558216620001475760405162461bcd60e51b815260206004820152601760248201527f4f776e6572206d757374206e6f7420626520656d70747900000000000000000060448201526064015b60405180910390fd5b6200015282620001c2565b5050600f80546001600160a01b0319163317905562000376565b3390565b600b80546001600160a01b038381166001600160a01b0319831681179093556040519116919082907f8be0079c531659141344cd1fd0a4f28419497f9722a3daafe3b4186f6b6457e090600090a35050565b600b546001600160a01b031633146200021e5760405162461bcd60e51b815260206004820181905260248201527f4f776e61626c653a2063616c6c6572206973206e6f7420746865206f776e657260448201526064016200013e565b6001600160a01b038116620002855760405162461bcd60e51b815260206004820152602660248201527f4f776e61626c653a206e6577206f776e657220697320746865207a65726f206160448201526564647265737360d01b60648201526084016200013e565b620002908162000170565b50565b828054620002a19062000339565b90600052602060002090601f016020900481019282620002c5576000855562000310565b82601f10620002e057805160ff191683800117855562000310565b8280016001018555821562000310579182015b8281111562000310578251825591602001919060010190620002f3565b506200031e92915062000322565b5090565b5b808211156200031e576000815560010162000323565b600181811c908216806200034e57607f821691505b602082108114156200037057634e487b7160e01b600052602260045260246000fd5b50919050565b61472680620003866000396000f3fe6080604052600436106102a05760003560e01c8063715018a61161016e578063a34d42b8116100cb578063d40dc8701161007f578063e4b50cb811610064578063e4b50cb814610770578063e985e9c51461079d578063f2fde38b146107e657600080fd5b8063d40dc87014610747578063d96a094a1461075d57600080fd5b8063b88d4fde116100b0578063b88d4fde146106e7578063c87b56dd14610707578063ce606ee01461072757600080fd5b8063a34d42b814610697578063a87430ba146106b757600080fd5b806390894559116101225780639ace38c2116101075780639ace38c214610604578063a144819414610657578063a22cb4651461067757600080fd5b806390894559146105da57806395d89b41146105ef57600080fd5b806383920e901161015357806383920e901461058457806383b5ff8b146105a65780638da5cb5b146105bc57600080fd5b8063715018a61461054f578063757de5731461056457600080fd5b806323b872dd1161021c5780634f6ccce7116101d057806366bf33be116101b557806366bf33be146104ef5780636f77926b1461050f57806370a082311461052f57600080fd5b80634f6ccce7146104af5780636352211e146104cf57600080fd5b8063312ab72211610201578063312ab7221461044257806342842e0e1461046f5780634e2fc2011461048f57600080fd5b806323b872dd146104025780632f745c591461042257600080fd5b80630e34c0a91161027357806318160ddd1161025857806318160ddd1461039657806319ee6e3f146103b557806320f79d9f146103d557600080fd5b80630e34c0a9146103565780630f08025f1461037657600080fd5b806301ffc9a7146102a557806306fdde03146102da578063081812fc146102fc578063095ea7b314610334575b600080fd5b3480156102b157600080fd5b506102c56102c03660046140e6565b610806565b60405190151581526020015b60405180910390f35b3480156102e657600080fd5b506102ef610817565b6040516102d191906144e7565b34801561030857600080fd5b5061031c6103173660046141ba565b6108a9565b6040516001600160a01b0390911681526020016102d1565b34801561034057600080fd5b5061035461034f36600461403b565b610943565b005b34801561036257600080fd5b50610354610371366004614227565b610a75565b34801561038257600080fd5b50600c5461031c906001600160a01b031681565b3480156103a257600080fd5b506009545b6040519081526020016102d1565b3480156103c157600080fd5b506103546103d0366004614064565b610b4e565b3480156103e157600080fd5b506103f56103f0366004613f01565b610cb2565b6040516102d1919061440c565b34801561040e57600080fd5b5061035461041d366004613f4d565b610d84565b34801561042e57600080fd5b506103a761043d36600461403b565b610e0b565b34801561044e57600080fd5b5061046261045d36600461411e565b610eb3565b6040516102d19190614565565b34801561047b57600080fd5b5061035461048a366004613f4d565b6111e6565b34801561049b57600080fd5b506103a76104aa3660046141d2565b611201565b3480156104bb57600080fd5b506103a76104ca3660046141ba565b6112a0565b3480156104db57600080fd5b5061031c6104ea3660046141ba565b611352565b3480156104fb57600080fd5b506102ef61050a3660046141ba565b6113dd565b34801561051b57600080fd5b5061046261052a366004613f01565b611477565b34801561053b57600080fd5b506103a761054a366004613f01565b611713565b34801561055b57600080fd5b506103546117ad565b34801561057057600080fd5b5061035461057f3660046141ba565b611813565b34801561059057600080fd5b506105996118c3565b6040516102d1919061446d565b3480156105b257600080fd5b506103a760115481565b3480156105c857600080fd5b50600b546001600160a01b031661031c565b3480156105e657600080fd5b506103f561195c565b3480156105fb57600080fd5b506102ef611a6f565b34801561061057600080fd5b5061062461061f3660046141ba565b611a7e565b604080516001600160a01b039687168152959094166020860152928401919091526060830152608082015260a0016102d1565b34801561066357600080fd5b5061035461067236600461403b565b611acb565b34801561068357600080fd5b50610354610692366004614001565b611b33565b3480156106a357600080fd5b506103546106b2366004613f01565b611b3e565b3480156106c357600080fd5b506106d76106d2366004613f01565b611c36565b6040516102d194939291906144fa565b3480156106f357600080fd5b50610354610702366004613f88565b611e7e565b34801561071357600080fd5b506102ef6107223660046141ba565b611f0c565b34801561073357600080fd5b50600f5461031c906001600160a01b031681565b34801561075357600080fd5b506103a760105481565b61035461076b3660046141ba565b611f17565b34801561077c57600080fd5b5061079061078b3660046141ba565b612296565b6040516102d19190614552565b3480156107a957600080fd5b506102c56107b8366004613f1b565b6001600160a01b03918216600090815260056020908152604080832093909416825291909152205460ff1690565b3480156107f257600080fd5b50610354610801366004613f01565b612845565b600061081182612927565b92915050565b6060600080546108269061462e565b80601f01602080910402602001604051908101604052809291908181526020018280546108529061462e565b801561089f5780601f106108745761010080835404028352916020019161089f565b820191906000526020600020905b81548152906001019060200180831161088257829003601f168201915b5050505050905090565b6000818152600260205260408120546001600160a01b03166109275760405162461bcd60e51b815260206004820152602c60248201527f4552433732313a20617070726f76656420717565727920666f72206e6f6e657860448201526b34b9ba32b73a103a37b5b2b760a11b60648201526084015b60405180910390fd5b506000908152600460205260409020546001600160a01b031690565b600061094e82611352565b9050806001600160a01b0316836001600160a01b031614156109d85760405162461bcd60e51b815260206004820152602160248201527f4552433732313a20617070726f76616c20746f2063757272656e74206f776e6560448201527f7200000000000000000000000000000000000000000000000000000000000000606482015260840161091e565b336001600160a01b03821614806109f457506109f481336107b8565b610a665760405162461bcd60e51b815260206004820152603860248201527f4552433732313a20617070726f76652063616c6c6572206973206e6f74206f7760448201527f6e6572206e6f7220617070726f76656420666f7220616c6c0000000000000000606482015260840161091e565b610a708383612965565b505050565b6000838152600260205260409020546001600160a01b0316610a9657600080fd5b610a9f83611352565b6001600160a01b0316336001600160a01b031614610aff5760405162461bcd60e51b815260206004820152600960248201527f4e6f74206f776e65720000000000000000000000000000000000000000000000604482015260640161091e565b600083815260146020908152604080832084905560139091529020805483919060ff191660018381811115610b4457634e487b7160e01b600052602160045260246000fd5b0217905550505050565b600c546001600160a01b0316331480610b715750600b546001600160a01b031633145b610be35760405162461bcd60e51b815260206004820152602b60248201527f46756e6374696f6e2063616e206f6e6c792062652063616c6c6564206279206f60448201527f776e6572206f7220494d58000000000000000000000000000000000000000000606482015260840161091e565b82600114610c335760405162461bcd60e51b815260206004820152601a60248201527f4d696e7461626c653a20696e76616c6964207175616e74697479000000000000604482015260640161091e565b600080610c4084846129d3565b91509150610c4f868383612bb3565b6000828152600d602090815260409091208251610c6e92840190613d07565b507f31e594f6b36b98ec520a91cbbba7b8724b1cec27393f86d8f0f6aa6084db0aaf868383604051610ca2939291906143e4565b60405180910390a1505050505050565b60606000610cbf83611713565b905060008167ffffffffffffffff811115610cea57634e487b7160e01b600052604160045260246000fd5b604051908082528060200260200182016040528015610d2357816020015b610d10613d8b565b815260200190600190039081610d085790505b50905060005b82811015610d7c57610d3e61078b8683610e0b565b828281518110610d5e57634e487b7160e01b600052603260045260246000fd5b60200260200101819052508080610d7490614669565b915050610d29565b509392505050565b610d8e3382612bbd565b610e005760405162461bcd60e51b815260206004820152603160248201527f4552433732313a207472616e736665722063616c6c6572206973206e6f74206f60448201527f776e6572206e6f7220617070726f766564000000000000000000000000000000606482015260840161091e565b610a70838383612cb0565b6000610e1683611713565b8210610e8a5760405162461bcd60e51b815260206004820152602b60248201527f455243373231456e756d657261626c653a206f776e657220696e646578206f7560448201527f74206f6620626f756e6473000000000000000000000000000000000000000000606482015260840161091e565b506001600160a01b03919091166000908152600760209081526040808320938352929052205490565b610ede6040518060800160405280606081526020016060815260200160608152602001606081525090565b6040805160808101825286815260208082018790528183018690526060820185905233600090815260128252929092208151805192939192610f239284920190613d07565b506020828101518051610f3c9260018501920190613d07565b5060408201518051610f58916002840191602090910190613d07565b5060608201518051610f74916003840191602090910190613d07565b5050336000908152601260205260409081902081516080810190925280549192509082908290610fa39061462e565b80601f0160208091040260200160405190810160405280929190818152602001828054610fcf9061462e565b801561101c5780601f10610ff15761010080835404028352916020019161101c565b820191906000526020600020905b815481529060010190602001808311610fff57829003601f168201915b505050505081526020016001820180546110359061462e565b80601f01602080910402602001604051908101604052809291908181526020018280546110619061462e565b80156110ae5780601f10611083576101008083540402835291602001916110ae565b820191906000526020600020905b81548152906001019060200180831161109157829003601f168201915b505050505081526020016002820180546110c79061462e565b80601f01602080910402602001604051908101604052809291908181526020018280546110f39061462e565b80156111405780601f1061111557610100808354040283529160200191611140565b820191906000526020600020905b81548152906001019060200180831161112357829003601f168201915b505050505081526020016003820180546111599061462e565b80601f01602080910402602001604051908101604052809291908181526020018280546111859061462e565b80156111d25780601f106111a7576101008083540402835291602001916111d2565b820191906000526020600020905b8154815290600101906020018083116111b557829003601f168201915b50505050508152505090505b949350505050565b610a7083838360405180602001604052806000815250611e7e565b60008061120d60095490565b6112189060016145a0565b90506112243382612e88565b61122e8184612ea2565b6000818152601360205260409020805485919060ff19166001838181111561126657634e487b7160e01b600052602160045260246000fd5b0217905550600081815260156020908152604080832080546001600160a01b031916331790556014909152902085905590505b9392505050565b60006112ab60095490565b821061131f5760405162461bcd60e51b815260206004820152602c60248201527f455243373231456e756d657261626c653a20676c6f62616c20696e646578206f60448201527f7574206f6620626f756e64730000000000000000000000000000000000000000606482015260840161091e565b6009828154811061134057634e487b7160e01b600052603260045260246000fd5b90600052602060002001549050919050565b6000818152600260205260408120546001600160a01b0316806108115760405162461bcd60e51b815260206004820152602960248201527f4552433732313a206f776e657220717565727920666f72206e6f6e657869737460448201527f656e7420746f6b656e0000000000000000000000000000000000000000000000606482015260840161091e565b600d60205260009081526040902080546113f69061462e565b80601f01602080910402602001604051908101604052809291908181526020018280546114229061462e565b801561146f5780601f106114445761010080835404028352916020019161146f565b820191906000526020600020905b81548152906001019060200180831161145257829003601f168201915b505050505081565b6114a26040518060800160405280606081526020016060815260200160608152602001606081525090565b6001600160a01b038216600090815260126020526040908190208151608081019092528054829082906114d49061462e565b80601f01602080910402602001604051908101604052809291908181526020018280546115009061462e565b801561154d5780601f106115225761010080835404028352916020019161154d565b820191906000526020600020905b81548152906001019060200180831161153057829003601f168201915b505050505081526020016001820180546115669061462e565b80601f01602080910402602001604051908101604052809291908181526020018280546115929061462e565b80156115df5780601f106115b4576101008083540402835291602001916115df565b820191906000526020600020905b8154815290600101906020018083116115c257829003601f168201915b505050505081526020016002820180546115f89061462e565b80601f01602080910402602001604051908101604052809291908181526020018280546116249061462e565b80156116715780601f1061164657610100808354040283529160200191611671565b820191906000526020600020905b81548152906001019060200180831161165457829003601f168201915b5050505050815260200160038201805461168a9061462e565b80601f01602080910402602001604051908101604052809291908181526020018280546116b69061462e565b80156117035780601f106116d857610100808354040283529160200191611703565b820191906000526020600020905b8154815290600101906020018083116116e657829003601f168201915b5050505050815250509050919050565b60006001600160a01b0382166117915760405162461bcd60e51b815260206004820152602a60248201527f4552433732313a2062616c616e636520717565727920666f7220746865207a6560448201527f726f206164647265737300000000000000000000000000000000000000000000606482015260840161091e565b506001600160a01b031660009081526003602052604090205490565b600b546001600160a01b031633146118075760405162461bcd60e51b815260206004820181905260248201527f4f776e61626c653a2063616c6c6572206973206e6f7420746865206f776e6572604482015260640161091e565b6118116000612f4b565b565b600b546001600160a01b0316331461186d5760405162461bcd60e51b815260206004820181905260248201527f4f776e61626c653a2063616c6c6572206973206e6f7420746865206f776e6572604482015260640161091e565b60105481106118be5760405162461bcd60e51b815260206004820152601060248201527f696e76616c6964206f776e657243757400000000000000000000000000000000604482015260640161091e565b601155565b60606016805480602002602001604051908101604052809291908181526020016000905b828210156119535760008481526020908190206040805160a0810182526005860290920180546001600160a01b039081168452600180830154909116848601526002820154928401929092526003810154606084015260040154608083015290835290920191016118e7565b50505050905090565b6060600061196960095490565b67ffffffffffffffff81111561198f57634e487b7160e01b600052604160045260246000fd5b6040519080825280602002602001820160405280156119c857816020015b6119b5613d8b565b8152602001906001900390816119ad5790505b509050600060015b6009548111611a6757600160008281526013602052604090205460ff166001811115611a0c57634e487b7160e01b600052602160045260246000fd5b1415611a5557611a1b81612296565b838381518110611a3b57634e487b7160e01b600052603260045260246000fd5b60200260200101819052508180611a5190614669565b9250505b80611a5f81614669565b9150506119d0565b509092915050565b6060600180546108269061462e565b60168181548110611a8e57600080fd5b6000918252602090912060059091020180546001820154600283015460038401546004909401546001600160a01b03938416955091909216929085565b600b546001600160a01b03163314611b255760405162461bcd60e51b815260206004820181905260248201527f4f776e61626c653a2063616c6c6572206973206e6f7420746865206f776e6572604482015260640161091e565b611b2f8282612e88565b5050565b611b2f338383612f9d565b600b546001600160a01b03163314611b985760405162461bcd60e51b815260206004820181905260248201527f4f776e61626c653a2063616c6c6572206973206e6f7420746865206f776e6572604482015260640161091e565b6001600160a01b038116611c145760405162461bcd60e51b815260206004820152602160248201527f696e76616c6964206e657720636f6e74726163744f776e65722061646472657360448201527f7300000000000000000000000000000000000000000000000000000000000000606482015260840161091e565b600f80546001600160a01b0319166001600160a01b0392909216919091179055565b601260205260009081526040902080548190611c519061462e565b80601f0160208091040260200160405190810160405280929190818152602001828054611c7d9061462e565b8015611cca5780601f10611c9f57610100808354040283529160200191611cca565b820191906000526020600020905b815481529060010190602001808311611cad57829003601f168201915b505050505090806001018054611cdf9061462e565b80601f0160208091040260200160405190810160405280929190818152602001828054611d0b9061462e565b8015611d585780601f10611d2d57610100808354040283529160200191611d58565b820191906000526020600020905b815481529060010190602001808311611d3b57829003601f168201915b505050505090806002018054611d6d9061462e565b80601f0160208091040260200160405190810160405280929190818152602001828054611d999061462e565b8015611de65780601f10611dbb57610100808354040283529160200191611de6565b820191906000526020600020905b815481529060010190602001808311611dc957829003601f168201915b505050505090806003018054611dfb9061462e565b80601f0160208091040260200160405190810160405280929190818152602001828054611e279061462e565b8015611e745780601f10611e4957610100808354040283529160200191611e74565b820191906000526020600020905b815481529060010190602001808311611e5757829003601f168201915b5050505050905084565b611e883383612bbd565b611efa5760405162461bcd60e51b815260206004820152603160248201527f4552433732313a207472616e736665722063616c6c6572206973206e6f74206f60448201527f776e6572206e6f7220617070726f766564000000000000000000000000000000606482015260840161091e565b611f068484848461306c565b50505050565b6060610811826130ea565b6000818152600260205260409020546001600160a01b0316611f3857600080fd5b3315801590611f615750611f4b81611352565b6001600160a01b0316336001600160a01b031614155b611fad5760405162461bcd60e51b815260206004820152600e60248201527f57726f6e6720616464726573732e000000000000000000000000000000000000604482015260640161091e565b600160008281526013602052604090205460ff166001811115611fe057634e487b7160e01b600052602160045260246000fd5b1461202d5760405162461bcd60e51b815260206004820152600d60248201527f4e6f7420666f722073616c652e00000000000000000000000000000000000000604482015260640161091e565b60008181526014602052604090205434101561208b5760405162461bcd60e51b815260206004820152601160248201527f496e737566666963656e74207072696365000000000000000000000000000000604482015260640161091e565b600061209682611352565b90506000806011541115612102576120c56010546120bf6011543461327590919063ffffffff16565b90613281565b600f546040519192506001600160a01b03169082156108fc029083906000818181858888f19350505050158015612100573d6000803e3d6000fd5b505b6001600160a01b0382166108fc612119348461328d565b6040518115909202916000818181858888f19350505050158015612141573d6000803e3d6000fd5b5061214d826001611b33565b612158823385612cb0565b506000828152601360209081526040808320805460ff19169055805160a0810182526001600160a01b0394851681523392810192835234918101918252426060820190815260808201968752601680546001810182559552905160059094027fd833147d7dc355ba459fc788f669e58cfaf9dc25ddcd0702e87d69c7b5124289810180549587166001600160a01b031996871617905592517fd833147d7dc355ba459fc788f669e58cfaf9dc25ddcd0702e87d69c7b512428a840180549190961694169390931790935591517fd833147d7dc355ba459fc788f669e58cfaf9dc25ddcd0702e87d69c7b512428b830155517fd833147d7dc355ba459fc788f669e58cfaf9dc25ddcd0702e87d69c7b512428c82015590517fd833147d7dc355ba459fc788f669e58cfaf9dc25ddcd0702e87d69c7b512428d90910155565b61229e613d8b565b6000828152600260205260409020546001600160a01b03166122bf57600080fd5b60006122ca83611352565b600084815260156020908152604080832054815160e0810183528881526001600160a01b039091168184018190528085526012909352928190208151608081018352815495965092949184019291829082906123259061462e565b80601f01602080910402602001604051908101604052809291908181526020018280546123519061462e565b801561239e5780601f106123735761010080835404028352916020019161239e565b820191906000526020600020905b81548152906001019060200180831161238157829003601f168201915b505050505081526020016001820180546123b79061462e565b80601f01602080910402602001604051908101604052809291908181526020018280546123e39061462e565b80156124305780601f1061240557610100808354040283529160200191612430565b820191906000526020600020905b81548152906001019060200180831161241357829003601f168201915b505050505081526020016002820180546124499061462e565b80601f01602080910402602001604051908101604052809291908181526020018280546124759061462e565b80156124c25780601f10612497576101008083540402835291602001916124c2565b820191906000526020600020905b8154815290600101906020018083116124a557829003601f168201915b505050505081526020016003820180546124db9061462e565b80601f01602080910402602001604051908101604052809291908181526020018280546125079061462e565b80156125545780601f1061252957610100808354040283529160200191612554565b820191906000526020600020905b81548152906001019060200180831161253757829003601f168201915b5050505050815250508152602001836001600160a01b0316815260200160126000856001600160a01b03166001600160a01b031681526020019081526020016000206040518060800160405290816000820180546125b19061462e565b80601f01602080910402602001604051908101604052809291908181526020018280546125dd9061462e565b801561262a5780601f106125ff5761010080835404028352916020019161262a565b820191906000526020600020905b81548152906001019060200180831161260d57829003601f168201915b505050505081526020016001820180546126439061462e565b80601f016020809104026020016040519081016040528092919081815260200182805461266f9061462e565b80156126bc5780601f10612691576101008083540402835291602001916126bc565b820191906000526020600020905b81548152906001019060200180831161269f57829003601f168201915b505050505081526020016002820180546126d59061462e565b80601f01602080910402602001604051908101604052809291908181526020018280546127019061462e565b801561274e5780601f106127235761010080835404028352916020019161274e565b820191906000526020600020905b81548152906001019060200180831161273157829003601f168201915b505050505081526020016003820180546127679061462e565b80601f01602080910402602001604051908101604052809291908181526020018280546127939061462e565b80156127e05780601f106127b5576101008083540402835291602001916127e0565b820191906000526020600020905b8154815290600101906020018083116127c357829003601f168201915b50505091909252505050815260008681526013602090815260409091205491019060ff16600181111561282357634e487b7160e01b600052602160045260246000fd5b8152600095865260146020908152604090962054950194909452509192915050565b600b546001600160a01b0316331461289f5760405162461bcd60e51b815260206004820181905260248201527f4f776e61626c653a2063616c6c6572206973206e6f7420746865206f776e6572604482015260640161091e565b6001600160a01b03811661291b5760405162461bcd60e51b815260206004820152602660248201527f4f776e61626c653a206e6577206f776e657220697320746865207a65726f206160448201527f6464726573730000000000000000000000000000000000000000000000000000606482015260840161091e565b61292481612f4b565b50565b60006001600160e01b031982167f780e9d63000000000000000000000000000000000000000000000000000000001480610811575061081182613299565b600081815260046020526040902080546001600160a01b0319166001600160a01b038416908117909155819061299a82611352565b6001600160a01b03167f8c5be1e5ebec7d5bd14f71427d1e84f3dd0314c0f7b2291e5b200ac8c7c3b92560405160405180910390a45050565b600060606000612a4d85858080601f016020809104026020016040519081016040528093929190818152602001838380828437600092018290525060408051808201909152600181527f3a000000000000000000000000000000000000000000000000000000000000006020820152935091506133349050565b90506000811215612aa05760405162461bcd60e51b815260206004820152601460248201527f536570617261746f72206d757374206578697374000000000000000000000000604482015260640161091e565b6000612afa86600187612ab382876145eb565b92612ac093929190614578565b8080601f01602080910402602001604051908101604052809392919081815260200183838082843760009201919091525061342692505050565b905060006003612b0a84886145eb565b612b1491906145eb565b905080612b3857816040518060200160405280600081525094509450505050612bac565b3660008888612b488760026145a0565b90612b5460018c6145eb565b92612b6193929190614578565b9150915083828281818080601f016020809104026020016040519081016040528093929190818152602001838380828437600092019190915250959c50919a50505050505050505050505b9250929050565b610a708383612e88565b6000818152600260205260408120546001600160a01b0316612c365760405162461bcd60e51b815260206004820152602c60248201527f4552433732313a206f70657261746f7220717565727920666f72206e6f6e657860448201526b34b9ba32b73a103a37b5b2b760a11b606482015260840161091e565b6000612c4183611352565b9050806001600160a01b0316846001600160a01b03161480612c7c5750836001600160a01b0316612c71846108a9565b6001600160a01b0316145b806111de57506001600160a01b0380821660009081526005602090815260408083209388168352929052205460ff166111de565b826001600160a01b0316612cc382611352565b6001600160a01b031614612d3f5760405162461bcd60e51b815260206004820152602960248201527f4552433732313a207472616e73666572206f6620746f6b656e2074686174206960448201527f73206e6f74206f776e0000000000000000000000000000000000000000000000606482015260840161091e565b6001600160a01b038216612dba5760405162461bcd60e51b8152602060048201526024808201527f4552433732313a207472616e7366657220746f20746865207a65726f2061646460448201527f7265737300000000000000000000000000000000000000000000000000000000606482015260840161091e565b612dc5838383613526565b612dd0600082612965565b6001600160a01b0383166000908152600360205260408120805460019290612df99084906145eb565b90915550506001600160a01b0382166000908152600360205260408120805460019290612e279084906145a0565b909155505060008181526002602052604080822080546001600160a01b0319166001600160a01b0386811691821790925591518493918716917fddf252ad1be2c89b69c2b068fc378daa952ba7f163c4a11628f55a4df523b3ef91a4505050565b611b2f828260405180602001604052806000815250613531565b6000828152600260205260409020546001600160a01b0316612f2c5760405162461bcd60e51b815260206004820152602e60248201527f45524337323155524953746f726167653a2055524920736574206f66206e6f6e60448201527f6578697374656e7420746f6b656e000000000000000000000000000000000000606482015260840161091e565b60008281526006602090815260409091208251610a7092840190613d07565b600b80546001600160a01b038381166001600160a01b0319831681179093556040519116919082907f8be0079c531659141344cd1fd0a4f28419497f9722a3daafe3b4186f6b6457e090600090a35050565b816001600160a01b0316836001600160a01b03161415612fff5760405162461bcd60e51b815260206004820152601960248201527f4552433732313a20617070726f766520746f2063616c6c657200000000000000604482015260640161091e565b6001600160a01b03838116600081815260056020908152604080832094871680845294825291829020805460ff191686151590811790915591519182527f17307eab39ab6107e8899845ad3d59bd9653f200f220920489ca2b5937696c31910160405180910390a3505050565b613077848484612cb0565b613083848484846135af565b611f065760405162461bcd60e51b815260206004820152603260248201527f4552433732313a207472616e7366657220746f206e6f6e20455243373231526560448201527131b2b4bb32b91034b6b83632b6b2b73a32b960711b606482015260840161091e565b6000818152600260205260409020546060906001600160a01b03166131775760405162461bcd60e51b815260206004820152603160248201527f45524337323155524953746f726167653a2055524920717565727920666f722060448201527f6e6f6e6578697374656e7420746f6b656e000000000000000000000000000000606482015260840161091e565b600082815260066020526040812080546131909061462e565b80601f01602080910402602001604051908101604052809291908181526020018280546131bc9061462e565b80156132095780601f106131de57610100808354040283529160200191613209565b820191906000526020600020905b8154815290600101906020018083116131ec57829003601f168201915b50505050509050600061322760408051602081019091526000815290565b905080516000141561323a575092915050565b81511561326c578082604051602001613254929190614379565b60405160208183030381529060405292505050919050565b6111de84613704565b600061129982846145cc565b600061129982846145b8565b600061129982846145eb565b60006001600160e01b031982167f80ac58cd0000000000000000000000000000000000000000000000000000000014806132fc57506001600160e01b031982167f5b5e139f00000000000000000000000000000000000000000000000000000000145b8061081157507f01ffc9a7000000000000000000000000000000000000000000000000000000006001600160e01b0319831614610811565b8151600090839060011461335857634e487b7160e01b600052600160045260246000fd5b825b8551811015613419578160008151811061338457634e487b7160e01b600052603260045260246000fd5b602001015160f81c60f81b7effffffffffffffffffffffffffffffffffffffffffffffffffffffffffffff19168682815181106133d157634e487b7160e01b600052603260045260246000fd5b01602001517fff000000000000000000000000000000000000000000000000000000000000001614156134075791506112999050565b8061341181614669565b91505061335a565b5060001995945050505050565b600080805b835181101561351f57600084828151811061345657634e487b7160e01b600052603260045260246000fd5b016020015160f81c905060308110801590613472575060398111155b1561349e576134826030826145eb565b61348d84600a6145cc565b61349791906145a0565b925061350c565b60405162461bcd60e51b815260206004820152602360248201527f696e76616c696420696e7075742c206f6e6c79206e756d6265727320616c6c6f60448201527f7765640000000000000000000000000000000000000000000000000000000000606482015260840161091e565b508061351781614669565b91505061342b565b5092915050565b610a708383836137f9565b61353b83836138b1565b61354860008484846135af565b610a705760405162461bcd60e51b815260206004820152603260248201527f4552433732313a207472616e7366657220746f206e6f6e20455243373231526560448201527131b2b4bb32b91034b6b83632b6b2b73a32b960711b606482015260840161091e565b60006001600160a01b0384163b156136fc57604051630a85bd0160e11b81526001600160a01b0385169063150b7a02906135f39033908990889088906004016143a8565b602060405180830381600087803b15801561360d57600080fd5b505af192505050801561363d575060408051601f3d908101601f1916820190925261363a91810190614102565b60015b6136e2573d80801561366b576040519150601f19603f3d011682016040523d82523d6000602084013e613670565b606091505b5080516136da5760405162461bcd60e51b815260206004820152603260248201527f4552433732313a207472616e7366657220746f206e6f6e20455243373231526560448201527131b2b4bb32b91034b6b83632b6b2b73a32b960711b606482015260840161091e565b805181602001fd5b6001600160e01b031916630a85bd0160e11b1490506111de565b5060016111de565b6000818152600260205260409020546060906001600160a01b03166137915760405162461bcd60e51b815260206004820152602f60248201527f4552433732314d657461646174613a2055524920717565727920666f72206e6f60448201527f6e6578697374656e7420746f6b656e0000000000000000000000000000000000606482015260840161091e565b60006137a860408051602081019091526000815290565b905060008151116137c85760405180602001604052806000815250611299565b806137d2846139ff565b6040516020016137e3929190614379565b6040516020818303038152906040529392505050565b6001600160a01b0383166138545761384f81600980546000838152600a60205260408120829055600182018355919091527f6e1540171b6c0c960b71a7020d9f60077f6af931a8bbf590da0223dacf75c7af0155565b613877565b816001600160a01b0316836001600160a01b031614613877576138778382613b4d565b6001600160a01b03821661388e57610a7081613bea565b826001600160a01b0316826001600160a01b031614610a7057610a708282613cc3565b6001600160a01b0382166139075760405162461bcd60e51b815260206004820181905260248201527f4552433732313a206d696e7420746f20746865207a65726f2061646472657373604482015260640161091e565b6000818152600260205260409020546001600160a01b03161561396c5760405162461bcd60e51b815260206004820152601c60248201527f4552433732313a20746f6b656e20616c7265616479206d696e74656400000000604482015260640161091e565b61397860008383613526565b6001600160a01b03821660009081526003602052604081208054600192906139a19084906145a0565b909155505060008181526002602052604080822080546001600160a01b0319166001600160a01b03861690811790915590518392907fddf252ad1be2c89b69c2b068fc378daa952ba7f163c4a11628f55a4df523b3ef908290a45050565b606081613a3f57505060408051808201909152600181527f3000000000000000000000000000000000000000000000000000000000000000602082015290565b8160005b8115613a695780613a5381614669565b9150613a629050600a836145b8565b9150613a43565b60008167ffffffffffffffff811115613a9257634e487b7160e01b600052604160045260246000fd5b6040519080825280601f01601f191660200182016040528015613abc576020820181803683370190505b5090505b84156111de57613ad16001836145eb565b9150613ade600a86614684565b613ae99060306145a0565b60f81b818381518110613b0c57634e487b7160e01b600052603260045260246000fd5b60200101907effffffffffffffffffffffffffffffffffffffffffffffffffffffffffffff1916908160001a905350613b46600a866145b8565b9450613ac0565b60006001613b5a84611713565b613b6491906145eb565b600083815260086020526040902054909150808214613bb7576001600160a01b03841660009081526007602090815260408083208584528252808320548484528184208190558352600890915290208190555b5060009182526008602090815260408084208490556001600160a01b039094168352600781528383209183525290812055565b600954600090613bfc906001906145eb565b6000838152600a602052604081205460098054939450909284908110613c3257634e487b7160e01b600052603260045260246000fd5b906000526020600020015490508060098381548110613c6157634e487b7160e01b600052603260045260246000fd5b6000918252602080832090910192909255828152600a90915260408082208490558582528120556009805480613ca757634e487b7160e01b600052603160045260246000fd5b6001900381819060005260206000200160009055905550505050565b6000613cce83611713565b6001600160a01b039093166000908152600760209081526040808320868452825280832085905593825260089052919091209190915550565b828054613d139061462e565b90600052602060002090601f016020900481019282613d355760008555613d7b565b82601f10613d4e57805160ff1916838001178555613d7b565b82800160010185558215613d7b579182015b82811115613d7b578251825591602001919060010190613d60565b50613d87929150613e2c565b5090565b6040518060e001604052806000815260200160006001600160a01b03168152602001613dd86040518060800160405280606081526020016060815260200160608152602001606081525090565b815260200160006001600160a01b03168152602001613e186040518060800160405280606081526020016060815260200160608152602001606081525090565b815260200160008152602001600081525090565b5b80821115613d875760008155600101613e2d565b600067ffffffffffffffff80841115613e5c57613e5c6146c4565b604051601f8501601f19908116603f01168101908282118183101715613e8457613e846146c4565b81604052809350858152868686011115613e9d57600080fd5b858560208301376000602087830101525050509392505050565b80356001600160a01b0381168114613ece57600080fd5b919050565b803560028110613ece57600080fd5b600082601f830112613ef2578081fd5b61129983833560208501613e41565b600060208284031215613f12578081fd5b61129982613eb7565b60008060408385031215613f2d578081fd5b613f3683613eb7565b9150613f4460208401613eb7565b90509250929050565b600080600060608486031215613f61578081fd5b613f6a84613eb7565b9250613f7860208501613eb7565b9150604084013590509250925092565b60008060008060808587031215613f9d578081fd5b613fa685613eb7565b9350613fb460208601613eb7565b925060408501359150606085013567ffffffffffffffff811115613fd6578182fd5b8501601f81018713613fe6578182fd5b613ff587823560208401613e41565b91505092959194509250565b60008060408385031215614013578182fd5b61401c83613eb7565b915060208301358015158114614030578182fd5b809150509250929050565b6000806040838503121561404d578182fd5b61405683613eb7565b946020939093013593505050565b60008060008060608587031215614079578384fd5b61408285613eb7565b935060208501359250604085013567ffffffffffffffff808211156140a5578384fd5b818701915087601f8301126140b8578384fd5b8135818111156140c6578485fd5b8860208285010111156140d7578485fd5b95989497505060200194505050565b6000602082840312156140f7578081fd5b8135611299816146da565b600060208284031215614113578081fd5b8151611299816146da565b60008060008060808587031215614133578384fd5b843567ffffffffffffffff8082111561414a578586fd5b61415688838901613ee2565b9550602087013591508082111561416b578485fd5b61417788838901613ee2565b9450604087013591508082111561418c578384fd5b61419888838901613ee2565b935060608701359150808211156141ad578283fd5b50613ff587828801613ee2565b6000602082840312156141cb578081fd5b5035919050565b6000806000606084860312156141e6578081fd5b833592506141f660208501613ed3565b9150604084013567ffffffffffffffff811115614211578182fd5b61421d86828701613ee2565b9150509250925092565b60008060006060848603121561423b578081fd5b83359250613f7860208501613ed3565b60008151808452614263816020860160208601614602565b601f01601f19169290920160200192915050565b80518252600060208201516001600160a01b0380821660208601526040840151915060e060408601526142ad60e086018361430e565b915080606085015116606086015250608083015184820360808601526142d3828261430e565b91505060a0830151600281106142f757634e487b7160e01b83526021600452602483fd5b60a085015260c09283015192909301919091525090565b6000815160808452614323608085018261424b565b90506020830151848203602086015261433c828261424b565b91505060408301518482036040860152614356828261424b565b91505060608301518482036060860152614370828261424b565b95945050505050565b6000835161438b818460208801614602565b83519083019061439f818360208801614602565b01949350505050565b60006001600160a01b038087168352808616602084015250836040830152608060608301526143da608083018461424b565b9695505050505050565b6001600160a01b0384168152826020820152606060408201526000614370606083018461424b565b6000602080830181845280855180835260408601915060408160051b8701019250838701855b8281101561446057603f1988860301845261444e858351614277565b94509285019290850190600101614432565b5092979650505050505050565b602080825282518282018190526000919060409081850190868401855b828110156144da57815180516001600160a01b0390811686528782015116878601528581015186860152606080820151908601526080908101519085015260a0909301929085019060010161448a565b5091979650505050505050565b602081526000611299602083018461424b565b60808152600061450d608083018761424b565b828103602084015261451f818761424b565b90508281036040840152614533818661424b565b90508281036060840152614547818561424b565b979650505050505050565b6020815260006112996020830184614277565b602081526000611299602083018461430e565b60008085851115614587578182fd5b83861115614593578182fd5b5050820193919092039150565b600082198211156145b3576145b3614698565b500190565b6000826145c7576145c76146ae565b500490565b60008160001904831182151516156145e6576145e6614698565b500290565b6000828210156145fd576145fd614698565b500390565b60005b8381101561461d578181015183820152602001614605565b83811115611f065750506000910152565b600181811c9082168061464257607f821691505b6020821081141561466357634e487b7160e01b600052602260045260246000fd5b50919050565b600060001982141561467d5761467d614698565b5060010190565b600082614693576146936146ae565b500690565b634e487b7160e01b600052601160045260246000fd5b634e487b7160e01b600052601260045260246000fd5b634e487b7160e01b600052604160045260246000fd5b6001600160e01b03198116811461292457600080fdfea26469706673582212204107b6671f33505a8d66aaf1f95e6c953b56753cb01b362aeb542942361b3f1664736f6c63430008040033687474703a2f2f6c6f63616c686f73743a333030302f6170692f746f6b656e3f746f6b656e49643d",
  "linkReferences": {},
  "deployedLinkReferences": {}
}